:020000040800F2
:10000000401D002001010008CD4F0008A94800084C
:10001000C94F00088D170008415700080000000074
:10002000000000000000000000000000355500083E
:10003000DD1C000800000000D14F00083D550008FD
:100040001B0100081B0100081B0100081B01000820
:100050001B0100081B010008491E00081B010008C5
:100060001B0100081B0100081B0100081B01000800
:100070001B0100081B0100081B0100081B010008F0
:10008000911700089D1700081B0100081B010008BC
:100090001B0100081B0100081B010008511E00087D
:1000A0001B0100081B0100081B0100081B010008C0
:1000B0001B0100081B0100081B0100081B010008B0
:1000C0001B0100081B0100081B0100081B010008A0
:1000D0001B0100081B010008FD5600081B01000859
:1000E0001B0100081B0100081B010008DFF80CD0F1
:1000F00000F0E8FF004800474DC60008401D002002
:100100000648804706480047FEE7FEE7FEE7FEE7B1
:10011000FEE7FEE7FEE7FEE7FEE7FEE741550008E3
:10012000ED00000840EA01039B0703D009E008C97D
:10013000121F08C0042AFAD203E011F8013B00F8AC
:10014000013B521EF9D27047D2B201E000F8012BF8
:10015000491EFBD270470022F6E710B513460A4647
:1001600004461946FFF7F0FF204610BD421E12F864
:10017000013F002BFBD111F8013B02F8013B002BA2
:10018000F9D17047CAB2401E10F8011F8A4202D04E
:100190000029F9D100207047421C10F8011B0029EA
:1001A000FBD1801A704710B5002200E0521C835C1E
:1001B0008C5CA34201D1002BF8D1D8B2E1B2401A35
:1001C00010BD034611F8012B00F8012B002AF9D1CC
:1001D0001846704770B50F4D00B92868002412E02A
:1001E0000A4602E09E4203D0521C1378002BF9D13C
:1001F000DAB2224305D02BB124B1002100F8011B53
:1002000004E00446401C0678002EE9D12860204610
:1002100070BD0000000000200FB400B58DB010A923
:1002200009900B9000914FF0FF300A9000200C9045
:1002300005480690054807906A4609A80F9900F0FE
:100240002BFD0DB05DF814FBB50C0008D30C0008B5
:100250002DE9FF5F1D464FF0FF3BD5E90146914672
:100260005F464FF00008A9697F1C01988847296AFA
:10027000824688470028F6D1BAF1FF3F0CD024F41B
:10028000C064002E19DD600614D5BAF12B0F09D019
:10029000BAF12D0F0ED103E0584604B0BDE8F09F2F
:1002A00044F48064A9697F1C01988847761E8246C1
:1002B000002E02DDBAF1300F03D0B9F1000F26D0C5
:1002C00032E0A969761E44F400747F1C01988847C7
:1002D0008246002E05DDBAF1780F06D0BAF1580F2C
:1002E00003D0B9F1000F10D01EE0B9F1000F02D019
:1002F000B9F1100F18D1A969761E24F400747F1C7F
:10030000019888478246102002E0082000E00A2079
:10031000814609E008FB0908A969761E44F40074C7
:100320007F1C019888478246002E05DD49465046CD
:1003300000F09DFC0028EDDAE96901988847A005E6
:1003400002D46FF00100A8E7E00725D1600613D5BD
:10035000600502D5C8F1000000E0404629680A1D8A
:100360002A600968220501D5087015E0220701D529
:10037000088011E008600FE02868011D296000680E
:10038000210502D580F8008006E0210702D5A0F8FB
:10039000008001E0C0F8008038467EE72DE9F04794
:1003A00091460F4680460446002614F8015B2DB1A5
:1003B00000F050FC0068405DC007F6D12B2D02D044
:1003C0002D2D18D0641E4A463946204600F092FC76
:1003D00027B13968A14201D1C7F8008071054FF0FB
:1003E00002040BD54042002803DD0FF00BFA046035
:1003F000A007BDE8F08746F48066E4E70028F8DA55
:100400000FF000FA04606FF00040F2E770B50646A6
:100410000FF0F8F9046805460A2200213046FFF77C
:10042000BDFF2C6070BDF0B480EA0102D40F420021
:10043000B2EB410F02D20246084611464A0042D0B2
:10044000C30DDDB2C1F3C752AD1A202D35DAC1F3A9
:10045000160141F4000204B15242C5F1200602FA2D
:1004600006F12A411044B3EBD05F23D0C4B1012D73
:10047000A0EBC35009DCF0BC4FF0004202EAC352CB
:10048000DBB200F5000000F0E2BC400000F180703B
:1004900000EBC350A0F1807040EAD170490009E040
:1004A000490841EAC071A0EBC35000F500004008C4
:1004B00000EBC350F0BC00F0C1BC6142012202EB72
:1004C0004101001BF6E7F0BC704781F00041AAE74C
:1004D00080F00040A7E780EA010210B502F0004377
:1004E000400022D04A001FD0010E01EB1261C0F380
:1004F0005600C2F3560240F4000042F40002A0FB92
:10050000022000047F39140400D0401C50EA12403D
:1005100001D44000491EC2B20C0604EBD010401CAE
:100520004008802A02D003E0002010BD20F0010026
:10053000002900DA0020184310BD30B480EA01021F
:1005400002F0004530F0004221F0004013D090B19D
:10055000C30DD40DC2F31601C0F31600E41A41F422
:10056000000140F400027D34914201D3641C00E09C
:100570004900002C02DA30BC002070474FF4000024
:100580000023914201D3891A034340084FEA4101F5
:10059000F7D151B1914202D14FF0004105E002D2B2
:1005A0004FF0010101E06FF0010103EBC45028445A
:1005B00030BC00F043BC2DE9FE4F804681EA0300C9
:1005C000C00F0C46009021F0004123F00045B8EB2D
:1005D0000200A94105D24046214690461C460B46E2
:1005E000024623F00040104347D0270DC7F30A000E
:1005F000C3F30A510290401A019040286BDAC3F30A
:10060000130040F4801B0098924620B10023D2EBE7
:10061000030A63EB0B0B01985946C0F140025046A8
:1006200000F0E6FA06460D4650465946019A00F09B
:10063000FEFA10EB08006141002487EA115284EAB7
:10064000E7731A4340D0009A62B3019A012A4FEA35
:10065000075215DC001B61EB02014FF0004202EA79
:100660000752CDE90042001C41F5801132462B466D
:1006700000F02AFC03B0BDE8F08F40462146F9E7C0
:10068000001B61EB0201001C41F5801300185B4167
:100690002018A2F5001747EB030140EAD570B61900
:1006A0006D4111E06D084FEA360645EAC0754FEA24
:1006B0000752001B61EB0201001C41F58011490843
:1006C0004FEA30000019514132462B4603B0BDE8D5
:1006D000F04F00F0EABB0098012240000023D0EB6D
:1006E000020263EBE073009821464FEAE074B8EB36
:1006F000000061EB0401E9E783F000435BE781F070
:10070000004158E72DE9FE4F81EA030404F000445C
:1007100021F0004100944FF0000B23F0004350EA19
:1007200001045ED052EA03045BD0C3F30A54C1F360
:100730000A552C44A4F2F3340194A0FB0254C1F3F3
:10074000130141F48011C3F3130343F4801301FB3D
:10075000024400FB034E840A970A44EA815447EAA4
:100760008357A4FB076802958D0A05FB07854FEAAE
:10077000932C04FB0C542705029D4FEA065847EAC8
:100780001637B5EB08056EEB070C870E920E47EA9D
:10079000811742EA8312A7FB0201B6EB0B0164EB5F
:1007A00000042B0D43EA0C335E1844EB1C50DA4670
:1007B0005146E7FB0201C5F313044FEA0B3343EA4A
:1007C00014534FEA0432019C43EA0603A4F10C04DB
:1007D0000294009CCDE900B400F076FB03B0BDE8C4
:1007E000F08F00200146F9E72DE9F04D81EA03047E
:1007F00004F0004B21F0004514464FF0000A23F0AE
:10080000004150EA050220D054EA01021DD0C5F390
:100810000A570246C5F31303C1F31300C1F30A5686
:1008200040F4801543F48013A7EB0608101BD6464E
:1008300008F2FD3873EB050002D308F1010801E06E
:1008400092185B41B8F1000F03DA00200146BDE8C1
:10085000F08D00204FF48011064684460EE0171BF1
:1008600073EB050705D3121B63EB050306434CEA44
:10087000010C49084FEA300092185B4150EA010729
:10088000EDD152EA030012D082EA040083EA0501A6
:10089000084305D0101BAB4106D20122002306E01D
:1008A00000224FF0004302E06FF0010253101AEBF8
:1008B00006004CEB085110EB0A0041EB0B01BDE8C0
:1008C000F04D00F0F2BA002801DBC0F10040002931
:1008D00001DBC1F10041814201D1012070470020BC
:1008E000704730B5041E71F1000404DB4FF0004482
:1008F000404264EB0101141E73F1000405DB1C4649
:100900004FF00043524263EB0403801A994101D334
:10091000012030BD002030BD30B5041E71F100044F
:1009200004DB4FF00044404264EB0101141E73F1FC
:10093000000405DB1C464FF00043524263EB040306
:10094000101A8B4101D2012030BD002030BD30B5DE
:10095000041E71F1000404DB4FF00044404264EBDC
:100960000101141E73F1000405DB1C464FF0004327
:10097000524263EB0403101A8B4101D3012030BDB6
:10098000002030BD30B5041E71F1000404DB4FF0CF
:100990000044404264EB0101141E73F1000405DBC6
:1009A0001C464FF00043524263EB0403801A994106
:1009B00001D2012030BD002030BD30B5041E71F1E0
:1009C000000404DB4FF00044404264EB0101141EBC
:1009D00073F1000405DB1C464FF00043524263EB09
:1009E000040342404B401A4301D0002030BD012097
:1009F00030BDC10F80EAE0700844CA079623002189
:100A000000F025BA96230022114600F020BA0EB558
:100A1000C10F80EAE0700844CA07002140F2334366
:100A20008DE80E000A460B4600F04EFA03B000BDFA
:100A30000EB540F2334102910021CDE900110A4682
:100A40000B4600F041FA03B000BD00F0004220F078
:100A50000040C10DC0F3160040F400007F2901DA08
:100A600000207047962903DCC1F19601C84001E0DF
:100A700096398840002AF4D04042704770B5C1F3DF
:100A80000A5201F000450024C1F3130140F2FF3384
:100A900041F480119A4201DA002070BD40F23343E4
:100AA0009A42A2F2334203DC524200F0B0F800E076
:100AB00090402C43F1D0404270BD70B5C1F30A5252
:100AC00001F000450024C1F3130140F2FF3341F46B
:100AD00080119A4202DA0020014670BD40F2334391
:100AE0009A42A2F2334203DC524200F090F801E055
:100AF00000F07EF82C43F0D00023D0EB030063EB32
:100B0000010170BD00F0004230F000400AD0C10D7C
:100B100001F56071C0F3160042EA0151C2084007B6
:100B20001143704700200146704701F0004330B484
:100B300021F0004150EA010206D00A0DA2F56072D0
:100B4000C1F31301002A02DC30BC00207047440FBF
:100B500044EAC104C100E01830BC00EBC25000F010
:100B60006DB930B50B46014600202022012409E072
:100B700021FA02F59D4205D303FA02F5491B04FA56
:100B800002F52844151EA2F10102F1DC30BD2DE969
:100B9000F05F0546002092469B4688460646814601
:100BA00040241BE0284641464746224600F02FF8E5
:100BB00053465A46C01A914110D311461846224650
:100BC00000F016F82D1A67EB01084F462246012067
:100BD000002100F00DF817EB00094E41201EA4F192
:100BE0000104DFDC484631462A464346BDE8F09F13
:100BF000202A04DB203A00FA02F1002070479140DD
:100C0000C2F1200320FA03F3194390407047202AD1
:100C100004DB203A21FA02F00021704721FA02F3A6
:100C2000D040C2F120029140084319467047202A63
:100C300006DBCB17203A41FA02F043EAE07306E004
:100C400041FA02F3D040C2F1200291400843194614
:100C500070470000004870477C07010810B5044643
:100C6000FFF7F8FF0068005D00F0010010BD3A28B2
:100C700000D2303820F02002412A01D3A2F13700FF
:100C8000884201D34FF0FF307047000002681144E2
:100C90001378016018467047D160044951610449D6
:100CA000116200211161114600F01EBA8D0C00087E
:100CB0005D0C0008426842B1016811F8013B23B1A4
:100CC000521EC0E90012184670470121C160881EFB
:100CD000704742685AB1C368016843B983688B4260
:100CE00005D0491E521CC0E90012002070474FF089
:100CF000FF3070472DE9F05F8246007800271546E7
:100D00008B460AF10104B946302801D09DB113E0A9
:100D100014F8010B0127782803D0582801D045B1D9
:100D20000AE00DB1102D07D10027102514F8010B92
:100D300002E0082500E00A250026B0460EE005FB8B
:100D4000080005FB06F1012701EB10461FFA80F8A9
:100D5000B6F5803F00D3B94614F8010B2946FFF7DA
:100D600086FF0028EBDABBF1000F05D00FB1641E3F
:100D700000E05446CBF80040B9F1000F06D00EF069
:100D800041FD02210160C81EBDE8F09F48EA06400F
:100D9000FAE700000FB40B0010B58AB00FA900915C
:100DA0000E994FF00004234ACC60214CCDE9064255
:100DB00000D004236FF00042CDE901321E4A0892B0
:100DC00002466B46002000F0B9FB0AB010BC5DF88B
:100DD00014FBF0B585B007464FF0FF300091CDE928
:100DE00001011E46002015460C4604903B466A460B
:100DF000314604A8FFF7CEFF04990346601825B1D9
:100E000009B1024600E022462A6000290ED0002BDC
:100E100002DD0099814209D00094001BCDE9010454
:100E20003B466A46314604A8FFF7B4FF05B0F0BD63
:100E3000B50C0008D30C00085D0C00080029A8BF01
:100E40007047401C490008BF20F00100704710B4F3
:100E5000B0FA80FC00FA0CF050EA010404BF10BCA8
:100E6000704749B1CCF1200421FA04F411FA0CF1D5
:100E700018BF012121430843A3EB0C01CB1D4FEA0E
:100E800000614FEA102042BF002010BC704700EB09
:100E9000C35010440029A4BF10BC7047401C490037
:100EA00008BF20F0010010BC704710B5141E73F18C
:100EB000000408DA401C41F1000192185B411A431A
:100EC00001D120F0010010BD2DE9F04D92469B4666
:100ED00011B1B1FA81F202E0B0FA80F2203290460C
:100EE000FFF786FE04460F4640EA0A0041EA0B017E
:100EF00053465A46084313D0114653EA010019D00D
:100F0000C8F140025046FFF782FE05460E465046A5
:100F100059464246FFF76CFE084305D0012004E025
:100F200020463946BDE8F08D0020054346EAE076CC
:100F30002C4337430A986305E40AA0EB080000221B
:100F4000FD0A44EA47540A3002D500200146E9E789
:100F5000010510196941DDE9084500196941BDE83D
:100F6000F04DA2E770B521F0004303430CD0C1F36C
:100F70000A550024D5EB040564EB0403D617AD1A1B
:100F8000B34102DB0020014670BD201841EB025145
:100F900070BD2DE9F04D00231A461B1A8A4103DB70
:100FA00000200146BDE8F08DC1F30A52C1F31301E0
:100FB00041F480154FF0000BD10702D100186D41AC
:100FC000521E0027044640F2FF11384601EB620A28
:100FD0003E468046024600204FF48011FFF717FE80
:100FE000C2197141BB1846EB0100B4EB030C75EB61
:100FF000000C04D3E41A65EB000517460E462419CD
:1010000008F101006D4180463428E3DDF91946EB13
:101010000600091BA84103D24FF0FF32134601E03E
:10102000002213461BEB070046EB0A51BDE8F04DCA
:10103000FFF73BBFC1F30A52C1F3130140F2FF3384
:1010400041F480119A4202DA00200146704740F2D2
:1010500033439A42A2F2334202DC5242FFF7D7BD39
:10106000FFF7C6BD30B5041E71F1000404DB4FF07C
:101070000044404264EB0101141E73F1000405DBDF
:101080001C464FF00043524263EB04038B4208BFFF
:10109000824230BD30B5041E71F1000404DB4FF014
:1010A0000044404264EB0101141E73F1000405DBAF
:1010B0001C464FF00043524263EB0403994208BFC1
:1010C000904230BD064C074D06E0E06840F0010359
:1010D00094E8070098471034AC42F6D3FFF70AF8BB
:1010E000EC1301080C1401082DE9F34F8BB04FF0FD
:1010F000000801F10C000C464FF0010B46460DF1C3
:10110000080A01906269012101989047051E2DD0BF
:10111000252D2CD0216A8847C0B162690121019830
:101120009047216A88470028F7D1411E62690198DB
:10113000904700E0761CA1690B988847216A884790
:101140000028F7D1E1690B988847DBE7A1690B9884
:1011500088470746A84201D1761CD3E7E1690B987E
:1011600088477F1C02D1B8F1000F6FD046E10027FD
:1011700062693D463946019890472A2804D1626940
:101180000121019890470125DFF8849262690121CD
:1011900001989047A0F130010A290AD24F45E5DCB9
:1011A00007EB870100EB4107303FDFD445F0100526
:1011B000ECE7E90601D46FF000476C280AD04C2810
:1011C00014D0682815D06A280DD074281CD07A282D
:1011D0001AD01DE062690121019890476C2802D065
:1011E00045F0040514E045F002050DE045F020054A
:1011F0000AE06269012101989047682802D045F011
:10120000080505E045F400656269012101989047F1
:10121000C4E9015765283DD019DC58287AD00CDC88
:10122000452837D004DC252826D0412831D131E0AB
:1012300046282FD047282CD12CE05B2877D0612876
:1012400028D063287CD0642823D15AE0D0E06F28CE
:1012500048D008DC66281DD067281BD0692821D01B
:101260006E2816D127E0702845D0732868D07528DD
:1012700047D078280DD14DE0A1690B9888470546E5
:1012800025283FF469AFE1690B9888476D1C3FF44E
:101290006AAFB3E023466A466FF001000B9900F095
:1012A0004DF99EE045F040006060A80723464FF0EE
:1012B000000236D43EE0E8077FF447AF2068011D06
:1012C00021600068290501D506701BE7290701D5B3
:1012D000068017E7A90703D5F117C0E9006111E7F8
:1012E00006600FE745F040006060A80723464FF016
:1012F000080216D41EE040F60E0125EA01006060E7
:1013000016E045F040006060A80723464FF00A024F
:1013100007D40FE045F040006060A80708D52346D9
:1013200010226FF001000B99AFF3008059E007E045
:10133000234610226FF001000B99FEF789FF50E061
:101340004FF000094F464B46632802D05B2806D079
:1013500040E0E80601D40120A06001273AE062697C
:101360000121019890475E2805D14FF0010962697B
:10137000494601989047216939B900210A465346E8
:1013800043F82120491C0829FADBB0B3216969B967
:10139000C11700EBD16253110AEB830122F01F0247
:1013A000821A01200B68904003430B60626901219F
:1013B000019890475D28E8D1B9F1000F09D00020CD
:1013C000514651F82020D24341F82020401C0828E3
:1013D000F7DB02AB224600976FF001000B99AFF3E9
:1013E000008000280CDA401C08D1BBF1000F05D0AA
:1013F0004FF0FF300DB0BDE8F08FFFE74046F9E752
:10140000E90701D108F1010806444FF0000B79E625
:10141000CCCCCC0C2DE9FF4F087883B09946FF283F
:1014200005D0491C2D2804D00024002008E000200D
:101430000BE00124F9E700EB800003EB4000491CBE
:101440000B78FF2BF7D104B14042002302931478AC
:1014500019461D462D2C01D02B2C04D1521C2D2CAD
:1014600013D000240294AA461478FF2C0FD00A252A
:10147000A3FB057801FB05814FF0000C03FB0C1169
:10148000521CE3194AEB0101EEE70124EAE781442B
:1014900053EA010002D019F5C87F06DA039800214B
:1014A000C0E9001107B0BDE8F08F0025AE4E2F4611
:1014B000DFF8B882184600F05DF9CDE90001B9F116
:1014C000000002DAC9F1000400E004460023A74A44
:1014D0001AEB030B42EB045A12E0E00707D02A464E
:1014E000334638464146FFF70DF9074688462A46F7
:1014F000334610461946FFF705F905460E466410B7
:10150000002CEAD1DDE90001B9F1000F5A4653463B
:1015100006DAFFF769F93A464346FFF765F905E051
:10152000FFF7F0F83A464346FFF7ECF8029A0AB1A3
:1015300081F00041039AC2E90001B3E72DE9FF4FB2
:101540001F468DB0D7E901464FF0FF382E204546A3
:101550004FF000090B90B9696D1C0E988847396AE5
:10156000824688470028F6D1BAF1FF3F0AD024F41A
:10157000D064002E11DDBAF12B0F08D0BAF12D0F77
:101580000BD102E0404611B08DE744F48064B969A4
:101590006D1C0E9888478246761E6946600501D507
:1015A0002D2000E02B208DF8000001F1010B0DF142
:1015B000200809E0B9696D1C0E98884782460F988B
:1015C00044F40074761E0560002E02DDBAF1300F7F
:1015D000F0D00B998A453ED144F0800406E00F9983
:1015E000681CA9F1010944F400740860B9696D1C14
:1015F000761E0E98884782463028F0D02BE00B9953
:101600008A4505D1200603D444F08004761E18E0F4
:1016100050460EF041FA08B30DF11302761EAAF1FE
:10162000300044F40074934506D20BF8010B2006F9
:1016300007D5A9F1010003E0200602D409F1010059
:101640008146A00502D50F99681C0860B9696D1C18
:101650000E9888478246002ED1DC53E0002E51DDE3
:10166000BAF1650F02D0BAF1450F4BD1A00549D5AB
:10167000B9696D1C24F44074761E0E988847824622
:10168000002E0CDD2B2804D0BAF12D0F07D144F425
:101690008074B9696D1C0E9888478246761EE005F5
:1016A00001D52D2100E02B2108F8011BCDF82C805D
:1016B00021E00DF12901761E44F4007488450CD216
:1016C000AAF1300010F0FF0088F8000002D10B9959
:1016D000884509D908F1010806E0E00501D524484C
:1016E00001E042F20F708146B9696D1C0E9888477F
:1016F00082460F980560002E04DD50460EF0CCF9AE
:101700000028D6D1F9690E988847FF208BF8000091
:1017100088F800000020069007904B466A4608A90A
:1017200006A8FFF777FEA00502D46FF001002AE7B4
:1017300014F0240F0AD0E00714D1DDE9061238684E
:10174000031D3B600068C0E900120BE0DDE9060103
:10175000FFF7EBF90146E00704D13868021D3A6053
:101760000068016028460EE7000014400000F03FCA
:10177000F1D8FFFF0EB540F2334202920022CDE9CC
:1017800000221346FFF7A0FB03B000BDFEE70000F8
:1017900040F64C00C2F2000000F092BD40F694000A
:1017A000C2F2000000F08CBD2DE9F04F87B00020A0
:1017B000CDE90400CDE902000BF0D6FA0BF0E8FD0C
:1017C000022003F0B9FE00BF05F0EAFF0028FBD0BD
:1017D000002007F0D7FB013065D040F2016BC2F268
:1017E000000B9BF8000001280ED1002004A908225C
:1017F000CDE90400302000F073FA9DF81000AA280B
:1018000002D19DF811002CE002200CF043F80446B0
:1018100004200CF03FF844EA40044FF480600CF0E0
:1018200039F844EA80044FF400600CF033F844EADD
:10183000C0044FF480500CF02DF844EA00144FF42B
:1018400000500CF027F844EA40144FF480400CF0AC
:1018500021F844EA80144FF400400CF01BF844EAED
:10186000C01040F25D09002110F0400FC2F20009E3
:1018700089F80000CDE9041104A92CD140200822E8
:10188000082400F02DFA9DF810009DF81110AA28E8
:1018900040F6102018BF214640F22404C2F2000096
:1018A000C2F200042AE003200AF062FE40F2036064
:1018B000C2F20000007801280CD10FF2084201208A
:1018C00002210AF0EFFD0FF20842012003210AF085
:1018D000E9FD00BFFEE73820082200F001FA9DF87C
:1018E00010009DF8111040F20C04C2F20004AA2866
:1018F00040F6102018BF0121C2F2000001802046EE
:1019000006F024FAA01D40F6ED1840F6082240F635
:10191000EC1A217802230078C2F20008C2F2000219
:10192000C2F2000A13708AF80010012888F800003B
:101930000BD0A0BB40F2E240042140F272624FF4AF
:10194000487340F214570C2609E04FF461700121EE
:1019500040F24C424FF4E1734FF416770A2640F6FA
:101960000024002501FB02004FF69A11C2F2000488
:101970004843656040F6F4152060C2F200052F6010
:1019800040F6F817C2F200073E7040F60C27C2F28C
:1019900000073B6040F6F013C2F200031A6000201B
:1019A000CDE904009BF80000012810D104A908200B
:1019B000082200F095F99DF81000AA280FD1DDF853
:1019C000110040F23C01C2F2000100BA05E040F211
:1019D0003C014FF0FF30C2F20001486014E040F2D9
:1019E0003C044FF0FF3000210822C2F20004606086
:1019F000CDE90211CDF80900AA2002A98DF808004E
:101A0000082000F0C7F9606840F6DC41C2F200012E
:101A1000086040F23C00C2F2000007F0D1F800205C
:101A2000CDE904009BF80000012811D104A9002091
:101A3000082200F055F99DF81000AA2811BF43F6BE
:101A4000F7709DF811009DF8121041EA002001E0A6
:101A500043F6F77040F25404C2F20004208009F00B
:101A6000B7FC208809F080FD4DF6CA6009F048FCFB
:101A70000220022106F0FAFF032009F0DDFB03201B
:101A800009F0A6FA012005F09DFE9BF80000012850
:101A900014D1002604A910200822CDE9046600F024
:101AA0001FF99DF81000AA280FD1DDF8110040F2AF
:101AB000E071C2F2000100BA086017E040F2E07085
:101AC0000021C2F20000016010E040F2E07002A9C3
:101AD0000822C2F200000660AA20CDE90266CDF815
:101AE00009608DF80800102000F054F999F8000002
:101AF00040F25607C2F20007C0F30010387040F2FF
:101B00000360C2F20000007801286BD140F6102675
:101B100041F2D2220423C2F20006C0F6010230884C
:101B20000928009040F61430C2F200008CBF54A186
:101B300056A10DF053FE40F6143201200121C2F2ED
:101B400000020AF0AFFC98F8000028B1012805D087
:101B5000092808D154A202E04FA200E050A20120BF
:101B600003210AF09FFC40F614349AF8002050A19B
:101B7000C2F2000420460DF031FE07200321224668
:101B80000AF090FC3878012814D140F6F81140F69C
:101B900014343088C2F20001C2F20004097801FB5B
:101BA00000F245A120460DF019FE01200221224637
:101BB0000AF078FC99F8000010F0010F09D041F20A
:101BC000D62209200421C0F601020AF06BFC99F824
:101BD0000000800606D50AF027FA39A20820042161
:101BE0000AF060FC9BF8000001280ED1002004A937
:101BF0000822CDE90400202000F072F89DF81000C2
:101C0000AA2802D19DF8110003E099F80000C0F362
:101C1000420040F2CF710024C2F2000108709BF82C
:101C2000000001280DD104A948200822CDE9044470
:101C300000F056F89DF810009DF81110AA2808BF72
:101C40000C4640F6290000210122C2F20000047077
:101C50004DF28000C2F2234009F01EF8442000211A
:101C60004FF0C07209F06EFE49F63530C0F6000044
:101C70000BF082F80BF0BCFB07B0BDE8F08F00BFA3
:101C8000257320256441256454000000257320201D
:101C900025644125645400003835304B00000000B5
:101CA000362E384D000000003131304B000000006E
:101CB000434825640000000025646D7300000000A7
:101CC0005000000020204552524F522020000000BA
:101CD000494E4954204641494C00000070470000DD
:101CE0002DE9F04F83B00C4610F0070F01D0002112
:101CF0004BE0D117082A02EB517121F00701A2EB4A
:101D0000010827DB40F6DC0901214FF47A7A4FF015
:101D1000080B01EBD205C2F2000900BFC7B248466A
:101D2000A0210123CDE9004BCDF808A03A4601F0EF
:101D30000BF90646052000F00FFC013D083407F1C1
:101D40000800012DEADCB6FA86F14909B8F1010F65
:101D500004DA1AE00021B8F1010F16DB1FFA88F24D
:101D60004FF47A710123CDE90042C2B240F6DC00A3
:101D70000291A021C2F2000001F0E6F8044605201D
:101D800000F0EAFBB4FA84F04109084603B0BDE86C
:101D9000F08F00002DE9F04F83B00C4610F0070FD4
:101DA00001D000214BE0D117082A02EB517121F03C
:101DB0000701A2EB010827DB40F6DC0901214FF601
:101DC000FF7A4FF0080B01EBD205C2F2000900BF09
:101DD000C7B24846A0210123CDE9004BCDF808A0A9
:101DE0003A4601F05DFA0646052000F0B5FB013DDC
:101DF000083407F10800012DEADCB6FA86F149093A
:101E0000B8F1010F04DA1AE00021B8F1010F16DB76
:101E10001FFA88F24FF6FF710123CDE90042C2B2EA
:101E200040F6DC000291A021C2F2000001F038FA75
:101E30000446052000F090FBB4FA84F041090846FE
:101E400003B0BDE8F08F0000012000F0C1BB00002E
:101E5000202000F0BDBB0000704700002DE9F04FCE
:101E6000D3B040F614570E46824628211546C2F2DA
:101E700000073846FEF76FF929680020012903DBC7
:101E800038602868786001206968002907DD012131
:101E900047F8301007EBC00101306A684A60A96852
:101EA000012909DB022147F8301007EBC001AA68BD
:101EB0004A60411C013000E00146EA68012A07DB64
:101EC0000322013047F8312007EBC101EA684A607C
:101ED000032802DA4FF0FF3579E1042875D0032892
:101EE00040F0F580D7F81090BC68386809EB4901DC
:101EF00056F8312006EBC101329204EB440256F849
:101F000032303B9300EB400356F8337029974F680B
:101F100034978F683797CF6835970F69496936913D
:101F200006EBC20138974A6839928A682592CA68D6
:101F30003A920A694969289106EBC3012A924A68D4
:101F400027928A683F92D1E903B755F820004E697D
:101F5000FEF75DFD44F200080022C4F28F084346FC
:101F6000FEF742FC249055F82400CDF898A08A464C
:101F7000FEF74DFD00224346FEF736FCCDE93D104D
:101F800055F82900FEF743FD00224346FEF72CFCDE
:101F900080460120DDF8A4E0DDF89CC03C97319735
:101FA000289F259D2A9C33962F96249E89465B4622
:101FB00051462B903F98CDF8C0E02E90CDE92CCB28
:101FC000D3463046DDF898A090E0B969D7F8108084
:101FD000D7F808903868269101EB410156F8312076
:101FE00006EBC101309208EB480256F832303293CA
:101FF00009EB490356F833703B9700EB400756F85E
:10200000374029944C682C948C682E94CC682D947D
:102010000C6949692F9106EBC20131944A683492E8
:102020008A683792CA6835920A694969369106EB1F
:10203000C30138924A683992D1E9024255F820002A
:102040003A920A694969289106EBC7012A924A68BF
:1020500027928A683F92CA6825920A6949693C9228
:102060003391FEF7D4FC574644F2000A0022C4F232
:102070008F0A2B9200225346FEF7B6FB064655F810
:1020800029008B46FEF7C3FC00225346FEF7ACFB4B
:10209000CDE93D1055F82800FEF7B9FC0022534663
:1020A000FEF7A2FB80462698894655F82000FEF7E9
:1020B000AEFC5346BA4625460022289F2A9CFEF7CE
:1020C00093FBDDF89CC0259BDDF8A4E00EE0002228
:1020D00000264FF0000B4FF000084FF000090021E0
:1020E0002B9200203E9000203D90002040AA21919C
:1020F00020900DA92292CDE91889524630981A9065
:102100002C981B902E981C902D981D9031981E9005
:102110002F981F903E9810903D98119032981290F1
:1021200034981390379814903598159038981690E5
:1021300036981790CDE9086B3B980A903998CDE90D
:102140000B053A9891C142A844A9CDE90010CDE908
:1021500002EC46A93F98CDE9040341AB3C98DDF879
:10216000CC9006904CA8CDF81C9004F005F90546DB
:10217000002D22DBDDE95087DDE94A46404639463D
:1021800022463346FEF7ADFB00281CBF3E464446C0
:10219000CAE904462B9808B9032D18D13C9A404649
:1021A00039464B46FEF7D3FB50B94CAF8FCF519E0B
:1021B0008AE88F00CAF8146009E04FF0FF3506E0A6
:1021C00046AF8FCF4B9E8AE88F00CAF8146028462E
:1021D00053B0BDE8F08F0000416A022911D10168B7
:1021E00001230A6822F00E020A600A6822F0010246
:1021F0000A60D0E9101203FA02F24A600021436239
:1022000002E00421C16301210022026208467047F6
:10221000416A022923D102682F2340F2040CC4F240
:102220000203C4F2020C11689A4221F00E011160FF
:10223000116821F00101116016DD3023C4F20203A0
:102240009A421DD04423C4F202039A421BD0582361
:10225000C4F202039A421BD14FF4803320E00421E0
:10226000C1630121084670470823C4F202039A4261
:102270000CD01C23C4F202039A4209D110230FE0B0
:102280004FF480730CE04FF4805309E0012307E022
:102290000CF168014FF080738A4208BF4FF480133D
:1022A00000210122CCF80030C0E90812826B22B173
:1022B00080B590470021BDE8804008467047000087
:1022C00010B5D0E910CEDCF8002001680B6813F0DF
:1022D000040F1EBF042404FA0EF414EA02042AD1E7
:1022E0009C074BD5022404FA0EF4144046D00A6829
:1022F00012F0200F05D10A6822F00A020A600122BA
:1023000042622F230422C4F20203C4F20202994261
:102310004FDD3023C4F20203994262D04423C4F259
:102320000203994260D05823C4F20203994266D155
:102330004FF400336BE00A682F23C4F2020312F05B
:10234000200F02BF0A6822F004020A60994240F29C
:102350000402C4F2020238DD3023C4F202039942BF
:1023600045D04423C4F20203994243D05823C4F217
:102370000203994255D14FF480235AE01B075ED5E2
:10238000082303FA0EF31A4008BF10BD0A6822F0B2
:102390000E020A60012101FA0EF2CCF8042000229C
:1023A000C163C0E90821416B002948D0BDE8104055
:1023B00008470823C4F2020399421ED01C23C4F22A
:1023C000020399421BD1202321E00823C4F2020317
:1023D000994224D01C23C4F20203994221D1402304
:1023E00027E04FF4007312E04FF400530FE04FF476
:1023F00080631EE04FF480431BE0022307E002F1FC
:1024000068044FF00073A14208BF4FF4001300218D
:1024100013600162C16A91B1BDE81040084704230E
:1024200007E002F168044FF08063A14208BF4FF457
:1024300080031360016B11B1BDE81040084710BD67
:1024400001460120002908BF7047B0B54FF6F87269
:102450000B6840F2000CCBF6FD72C4F2020C03EBE9
:10246000020E4CF6CD42CCF6CC42AEFB022E4FF61D
:10247000FC72C3F6FF7202EA9E02C1E910C243F683
:10248000F072D3F800C02CEA020CD1E9012ED1E998
:10249000034542EA0C0242EA0E0222432A434D69F6
:1024A0002A438D692A43CD692A431A600022CA63F0
:1024B000C1E908200020BDE8B0407047B0B5D0F8B1
:1024C00020C0BCF1010F33D04FF0010EC0F820E066
:1024D000D0F824C0BCF1010F28D14FF0000CC0F897
:1024E0003CC04FF0020CC0F824C0D0F800C0DCF8AB
:1024F000004024F00104CCF80040D0E910450EFA69
:1025000005F56560CCF804304368102B0B4608BF16
:102510001346CCF8083008BF0A46CCF80C20016BF3
:10252000DCF8000031B140F00E000BE00021016248
:102530000220B0BD20F00400CCF80000DCF8000060
:1025400040F00A00CCF80000DCF8000040F0010088
:10255000CCF800000020B0BDB0B5044600F06CF926
:10256000054640F2C400611CC2F20000006818BFBA
:10257000044400BF00F060F9401BA042FAD3B0BD94
:10258000B0B5202808D0012820D140F6BC40012158
:10259000C2F200000160B0BD40F600442021C4F248
:1025A0000104204600F034F9002808BFB0BD40F611
:1025B0003835C2F2000500BF2868002818BF8047E0
:1025C0002046202100F024F90028F5D1B0BD0000FC
:1025D00040F21441C4F201010A68024214BF0860CB
:1025E0007047FFF7CDBF00002DE9F04F83B0D1F861
:1025F00000E0BEF1000F00F0088141F20042042328
:1026000040F2004840F20C4901244FF0000A4FF01C
:10261000000BC4F20102C4F20108C4F201099042A5
:1026200000F1140208BF032301920093002300BFAE
:1026300004FA0AFC1EEA0C0F00F0DE804FF6FF726F
:102640004D68C1F21002954212DC122D56D80F24AB
:10265000DFE805F0360A4549565656565656565640
:1026600056565656564C5000D1F80CB048E000BFB4
:102670004FF6FF72C1F22102954210DC00220F24B6
:10268000C1F2110295421BD00022C1F21202954202
:1026900016D00022C1F22102954211D030E0002272
:1026A0000F24C1F2220295420AD00022C1F2310267
:1026B000954205D00022C1F23202954220D100BFDE
:1026C0008A684AB1012A019A4FF0080B08BF00F14D
:1026D0001002C2F800C013E04FF0040B10E0CA680B
:1026E00002F1080B0CE04FF0000B09E0CA6802F1A0
:1026F000040B05E0CA6802F10C0B01E00F2400BFD7
:102700004FF6F875BAF1080F0246564628BF043254
:10271000C3F6FF75176828BF2E44B60004FA06F505
:102720000BFA06F6AF4337431760CA79D20601D4D5
:10273000012461E041F218020F25C4F2020214469E
:10274000226842F001022260226803F00C0402F0C9
:102750000102029205FA04F24FEA9A05029FA8F5D7
:102760007E7757F82560964340F60002C4F20102D6
:1027700090420ED040F60042C4F2010290420AD0CC
:1027800041F20002C4F201029042009A08BF022204
:1027900002E0002200E00122A240324347F8252057
:1027A0004C68D8F8002014F4803F0CBF22EA0C02D9
:1027B00042EA0C02C8F80020A203D8F8042054BF53
:1027C00022EA0C0242EA0C02C8F80420E202D8F81D
:1027D000082054BF22EA0C0242EA0C02C8F8082082
:1027E000A2024FF00104D9F8002054BF22EA0C02E3
:1027F00042EA0C02C9F80020D1F800E00AF1010A0F
:1028000004333EFA0AF27FF413AF03B0BDE8F08F51
:102810008068084018BF012070470000C26802EAC3
:102820000103914341EA034101617047002A08BF57
:10283000090401617047000040F61050C2F2000028
:1028400000687047B0B5044644B3206C20B900203E
:10285000E063204600F000FE242020642068016828
:1028600021F001010160016841F40041016001684B
:1028700021F40041016000F0FBFF48F2A1616568AE
:1028800040F60013C0F20101C0F23D038D423CBF8F
:1028900048F28043C0F21E03984201D20120B0BD2D
:1028A0004DF68361C4F21B31A0FB011321684A6815
:1028B00022F03F0242EA93429B0C4A600A6A22F0ED
:1028C0003F0C48F2A062C0F20102954213D85A1C94
:1028D00001384CF6FF7342EA0C020A626A00B0FB50
:1028E000F2F001306FF31F30042898BF0420CA694A
:1028F00022EA030C3FE04FF49672A0F1010E5A4316
:1029000044F6D353C1F26203A2FB0323012202EB7C
:1029100093124CF6FF7342EA0C020A62CA6922EA79
:10292000030CA3689BB1192004226843BEFBF0F09E
:10293000013062F31F30000512D09BB11920042230
:102940006843BEFBF0F0013062F31F3011E005EB8D
:102950004500BEFBF0F001306FF31F300005ECD1F5
:10296000012008E005EB4500BEFBF0F001306FF3FD
:102970001F3040F4004040EA0C00C8610868D4E908
:10298000072320F0C000104348F2FF3218430860CC
:1029900088689043D4E90323184310438860C868CB
:1029A000D4E9052320F0FF0010431843C8600868ED
:1029B00040F00100086000202021A0642164206311
:1029C0006064B0BD2DE9F04F83B01E4690460F46BF
:1029D0000446FFF731FF0546206C202816D100BFC2
:1029E0002068816911F0020F12D0FFF725FF401B0C
:1029F0001A28F5D300202021022620632164606478
:102A0000E063A06C40F02000A064ACE00226AAE0E5
:102A1000E16B012901D10226A5E001214FF0010A55
:102A200006F101094FF0A00BE163016811F0010FFD
:102A300002BF016841F001010160016821F40061F9
:102A40000160242121640021A1640021CFF6FF71DF
:102A5000E16207F0FE010191016841F480710160BB
:102A600001E000BF2068416911F0010F0AD1B9F1FE
:102A7000000FF8D0FFF7E0FE002E61D0401BB042FF
:102A8000F0D95DE001990161FFF7D6FE05462068A7
:102A9000014651F814CF0B68226CA02A20D09A0A64
:102AA00042EA5C0212F0010206D019E09B0A43EAF6
:102AB000520212F0010213D1FFF7BEFE36B1401BE5
:102AC000B04288BFC4F840B002E000BFC4F840B0D4
:102AD0002068014651F8142F0B68276CA02FE5D110
:102AE000202222640A68036843F4007312F0020F84
:102AF00003603CD16FF480620A6000E02068816965
:102B000011F0020F06D0FFF797FE401B1A28F5D3ED
:102B10000AE000BF0AF1010AC2459DD30020012648
:102B2000E063202020641EE0002020210126206395
:102B300021646064E063A06C40F02000A06412E0B7
:102B4000002020210326206321646064E063A06CE0
:102B500040F02000A0642068006810F4807F1CBF53
:102B60004FF40070A064304603B0BDE8F08F00263B
:102B700002960968029181690291029900E0206839
:102B8000806910F0020F10D0FFF756FE401B1A2884
:102B9000F5D3002020210126206321646064E063D6
:102BA000A06C40F02000A064DDE72020E6632064F4
:102BB000D9E700002DE9F04782B01E461746884647
:102BC0000446FFF739FE0546206C202816D100BFC9
:102BD0002068816911F0020F12D0FFF72DFE401B13
:102BE0001A28F5D300202021022620632164606486
:102BF000E063A06C40F02000A06405E0022603E042
:102C0000E16B012904D10226304602B0BDE8F0870D
:102C100001210022E163CFF6FF72016811F0010F7C
:102C200002BF016841F001010160016821F4006107
:102C3000016021212164102161640021A164668565
:102C4000618DE26267622185E16A11F5803F18BFFC
:102C5000012940F0ED80016841F480710160416913
:102C60000A9F11F0010F10D17E1C00BF4EB1FFF77B
:102C7000E3FD002F00F0E480401BB84200F2E0804A
:102C80002068416911F0010FF0D02169B1F5804F42
:102C900002D108F0FE0126E0062101EAD81141F038
:102CA000F0010161014651F8142F12F0080F18D1FC
:102CB0007E1C00BF0A6812F4806F40F00181002E74
:102CC00009D0FFF7B9FD002F00F03281401BB84258
:102CD00000F22E812068014651F8142F12F0080FDF
:102CE000E8D05FFA88F10161014651F8142F12F023
:102CF000020F18D17E1C00BF0A6812F4806F40F0EA
:102D0000B380002E09D0FFF797FD002F00F0EB8075
:102D1000401BB84200F2E7802068014651F8142FAA
:102D200012F0020FE8D0002601960968019181692E
:102D300001910199B4F828C0BCF1000F6FD007F1E0
:102D400001084FF6FF79014651F8142F12F0800F59
:102D50001BD100BF0A6812F4806F40F09880B8F170
:102D6000000F0AD0FFF768FD2021002F00F09380AC
:102D7000401BB84200F28F802068014651F8142FA2
:102D800012F0800FE6D0B4F828C0D4F824A053463F
:102D900013F8012B02616362ACF10103238513EA8E
:102DA000090F628DA2F101026285D1F800E018BF1F
:102DB0001EF004020BD09AF80120ACF1020302616C
:102DC0000AF1020262622385628D013A62850A6815
:102DD00012F0040F1FD100BF0A6812F4806F40F098
:102DE0008E80B8F1000F0AD0FFF726FD2021002FBA
:102DF00000F08980401BB84200F2858020680146BF
:102E000051F8142F12F0040FE6D0B4F828C05FEA8E
:102E10000C4198D103E09C465FEA0C4193D10168D4
:102E200041F40071016020202064E6636664EBE6F3
:102E300008293FF410AF216B12293FF40CAF0EE7C5
:102E4000002020210126206321646064E063A06CDF
:102E500040F02000A0642068006810F4807F1CBF50
:102E60004FF40070A064CFE60268012642F40072BD
:102E700002606FF4806008600020202120632164DC
:102E80006064E063A06C40F00400A064BCE66FF4F2
:102E90008060086004210020202220632264606496
:102EA000A26C1143A164E063A06C042806D12068E1
:102EB0000126016841F400710160A5E60126A3E640
:102EC0000268012642F4007202606FF480600860BC
:102ED00000202021206321646064E063A06C40F046
:102EE0000400A06490E600202021012620632164D4
:102EF0006064E063A06C40F02000A06484E66FF49E
:102F00008060086004210020202220632264606425
:102F1000A26C1143A164E063A06C042806D1206870
:102F20000126016841F4007101606DE601266BE63F
:102F3000002020210126206321646064E063A06CEE
:102F400040F02000A0645FE62DE9F04F85B0044614
:102F50000020984617460E460490FFF76DFC054684
:102F6000206C202818D100BF2068816911F0020F61
:102F70000FD0FFF761FC401B1A28F5D30020202159
:102F8000206321646064E063A06C40F02000A064D2
:102F900002E0E16B012903D1022005B0BDE8F08F0A
:102FA0000DF13809012399E80602E363036813F081
:102FB000010F02BF036843F001030360036823F4B9
:102FC00000630360222043462064402060640020A8
:102FD000A0646285616200213A46608DCFF6FF7180
:102FE000E162314620852046CDE9009501F05EFC86
:102FF000002840F04581218D01290DD011BB002012
:1030000003902068416903918169039103990168E4
:1030100041F40071016037E02068016821F48061AB
:103020000160EFF3108072B60020039020684169C0
:103030000391816903910399016841F40071016072
:1030400062B621E020680229026813D142F40061CF
:103050000160EFF3108072B6002003902068416990
:103060000391816903910399016821F480610160F2
:1030700062B609E042F48061016000210391416978
:103080000391806903900398208D002800F0DB8075
:103090004BF2895B09F1010600274FF02308C1F2CA
:1030A000F84B1FFA80FABAF1030F19D8BAF1010FE1
:1030B0002CD1206850F8141F11F0400F40F0B3805D
:1030C000016811F0100F40F0C680FFF7B5FBB9F1B1
:1030D000000F00F0CA80401B4845EAD9C5E000BF98
:1030E0002168084650F8142F12F0400F2BD10168C8
:1030F00011F0100F40F0AF80FFF79EFBB9F1000F09
:1031000000F0B380401B4845EAD9AEE02068416931
:1031100011F0040F2BD1002EF9D0FFF78DFBB9F180
:10312000000F02D0401B4845F0D9202027632064BF
:103130006764E763A06C40F02000A0640120BAF14E
:10314000020F18D030E00869616A0870606A21686F
:1031500001306062208D01382085628D013A6285E0
:10316000496911F0040F5ED101049AD16BE000208F
:10317000BAF1020F18D1002840F08280EFF31080DE
:1031800072B62068016841F4007101600069616AEB
:103190000870606A01306062608D01386085208D42
:1031A0000138208562B63EE0002869D120680168B8
:1031B00021F480610160EFF3108072B6206800692D
:1031C000616A0870606A01306062618D01396185F1
:1031D000218D0139218540F25001C2F200010968B8
:1031E000C908A1FB0B12110A01FB08F1049100BFF1
:1031F0000499013904910499002945D021684A694C
:1032000012F0040FF4D00A6842F400720A600969EF
:103210000170606A01306062208D01382085608D08
:103220000138608562B620680069616A0870606A6A
:1032300001306062208D01382085618D0139618502
:1032400001047FF42EAF202020640020E06360643E
:1032500005B0BDE8F08F6FF0100101600020202163
:10326000206321646064A06C07E0002020212063BB
:1032700021646064A06C40F020000021E163A06440
:10328000012005B0BDE8F08F0020202120632164DB
:103290006064A16C41F02001A16462B6E063EFE7D5
:1032A0002DE9F04383B0984617460E460446FFF7D3
:1032B000C3FA0546206C202818D100BF2068816918
:1032C00011F0020F0FD0FFF7B7FA401B1A28F5D301
:1032D00000202021206321646064E063A06C40F042
:1032E0002000A06402E0E16B012903D1022003B0B9
:1032F000BDE8F0830DF12809012399E80602E36394
:10330000036813F0010F02BF036843F00103036079
:10331000036823F4006303602120434620644020B7
:1033200060640020A0646285616200213A46608D7D
:10333000CFF6FF71E162314620852046CDE9009548
:1033400001F0F2FB18B1012003B0BDE8F083206862
:10335000228D0146002A51F8143F41D009F101069F
:103360004FF6FF781B0617D40A6812F4806F5CD101
:103370004EB1FFF761FA2021B9F1000F59D0401B7F
:10338000484556D82068014651F8142F12F0800F96
:10339000EAD0B4F828C000E09446676A394611F8CC
:1033A000012B0261ACF101022285616212EA080F71
:1033B000618DA1F101016185014651F8143F18BFEB
:1033C00013F0040309D07A78BB1C0261ACF102024D
:1033D00022856362638D013B63850B681704C1D14D
:1033E0005A0716D409F101060A6812F4806F1CD13D
:1033F0004EB1FFF721FA2021B9F1000F19D0401B7F
:10340000484516D82068014651F8142F12F0040FD1
:10341000EAD0016841F4007101602020206400209E
:10342000E063606403B0BDE8F0836FF4806008601F
:10343000042100202022206322646064A26C1143D6
:10344000A164E063A06C04287FF47DAF206801686C
:1034500041F40071016076E710B586B00021CDE936
:103460000411CDE90211016845F20040C4F20000E8
:10347000814201D006B010BD41F2180400F5384079
:10348000C4F20204216841F008012160216801F0C2
:1034900008010191019912210391C0210291032198
:1034A000059102A9FFF7A0F8606840F40010606081
:1034B000606800F400100190019806B010BD000093
:1034C000B0B50446002C04BF0120B0BD20684CF606
:1034D000CC41016045F25551016061684160A168CD
:1034E0008160FFF7A9F90546206805E0C16811F081
:1034F000030F1CBF0320B0BDC16811F0030F06D03D
:10350000FFF79AF9411B20682829F5D3EEE74AF620
:10351000AA2101600020B0BD00684AF6AA2101601E
:103520000020704740F2C40040F61051C2F2000083
:10353000C2F2000100680A68104408607047000089
:1035400080B542F20000C4F20200016841F01001AF
:103550000160032000F0A6F8002000F005F800F05C
:1035600029F8002080BD0000B0B5044640F2C40038
:103570004FF47A71C2F200000068B1FBF0F040F243
:103580005001C2F200010968B1FBF0F000F0E8FD63
:1035900001250F2C0CD858B94FF0FF3021460022DE
:1035A000002500F04DF840F2C800C2F200000460AF
:1035B0002846B0BD82B041F218000222C4F20200D7
:1035C000016841F001010160016801F00101019110
:1035D0000199416841F080514160406800F080509D
:1035E000009000980420C4F20100016862F31A619F
:1035F000016002B0704700000028B8BF704700F0BB
:103600001F010122400902FA01F14EF28012CEF2AE
:10361000000242F82010BFF34F8FBFF36F8F704747
:103620000028B8BF704700F01F010122400902FACC
:1036300001F14EF20012CEF2000242F82010704763
:1036400010B500F00F034EF60C5E00F1604CB0F1C7
:10365000FF3FA3F10403CEF2000E734403F10C0408
:10366000C8BF0CF56444DEF80000C0F3022000F18E
:10367000040CC31E80F00700BCF1070F4FF0010CD3
:1036800038BF0023042828BF04200CFA00F00138BA
:1036900008400CFA03F10F31984011400843000133
:1036A000207010BD4EF60C514FF6FF03CEF2000114
:1036B0000A681A4060F30A2242F0806040F0FD7010
:1036C0000860704702F03EF82DE9F04104460D46CF
:1036D000002C00F0A78041F20407C4F20207D7F8DB
:1036E000FC0F00F00700A8420DD2D7F8FC0F20F025
:1036F00007002843C7F8FC0FD7F8FC0F00F00700BD
:10370000A84240F08F80206810F0020F11D04107CE
:1037100042BF396841F4E0613960010742BF39684E
:1037200041F4605139603968A26821F0F001114319
:103730003960C00737D06068012808D157F8041CE9
:1037400011F4003F04BF0120BDE8F0810BE057F801
:10375000041C022805D189015CBF0120BDE8F0816D
:1037600001E089075ED5396821F00301084338601C
:10377000FFF762F806463868616800F00C00B0EBAD
:10378000810F10D041F28838FFF756F8801B404572
:1037900084BF0320BDE8F0813868616800F00C0048
:1037A000B0EB810FF0D1D7F8FC0F00F00700A84272
:1037B0000CD9D7F8FC0F20F007002843C7F8FC0FFE
:1037C000D7F8FC0F00F00700A8422BD1206810F0BA
:1037D000040F05D03968E26821F4E06111433960D3
:1037E000000706D53868216920F4605040EAC1001E
:1037F0003860396841F20020C0F27A0001F00C0212
:10380000082A1DD140F61E73C1F3834211F4803F94
:10381000C0F601039A5C08D140F60010C0F23D00EA
:1038200050430DE00120BDE8F0813968504340F677
:103830000C72C0F60102C1F34041515CB0FBF1F0E3
:10384000396840F28872C0F60102C1F30311515C7D
:10385000C84040F25001C2F20001086040F2C800C6
:10386000C2F200000068FFF77FFE0020BDE8F08193
:1038700040F2500041F2040140F29872C2F200009E
:10388000C4F20201C0F6010200680968C1F3022116
:10389000515CC8407047000040F2500041F2040102
:1038A00040F29872C2F20000C4F20201C0F60102B6
:1038B00000680968C1F3C221515CC840704700002C
:1038C0002DE9F04383B00446002C00F0A28120785B
:1038D00041F2000941F22007C4F20209C4F20207D2
:1038E000C0075ED057F81C0C00F00C0004281DD057
:1038F00057F81C0C00F00C00082804D157F81C0CD9
:1039000010F4803F12D16068C0B1B0F5803F08D09C
:10391000D9F80010B0F5A02F2BD141F48020C9F8C0
:103920000000D9F8000040F480302AE0D9F8000007
:1039300010F4003F35D0606898BB6AE1D9F8000008
:1039400020F48030C9F80000D9F8000020F480206D
:10395000C9F80000FEF770FF054600BFD9F8000067
:1039600010F4003F1DD0FEF767FF401B6428F5D917
:10397000A4E121F48030C9F80000D9F8000020F457
:103980008020C9F80000FEF757FF0546D9F800006F
:1039900010F4003F05D1FEF74FFF401B6428F5D916
:1039A0008CE12078800739D557F81C0C10F00C0FEB
:1039B0000AD057F81C0C00F00C0008280ED157F85C
:1039C0001C0C10F4803F09D1D9F8000010F0020F50
:1039D0001BD02069012840F01C8116E021690020DD
:1039E000C4F24220002900F0CA8001210160FEF7E4
:1039F00023FF0546D9F8000010F0020F05D1FEF7AD
:103A00001BFF401B0228F5D958E1D9F80000616975
:103A100020F0F80040EAC100C9F800002078000753
:103A20004CD5A1690020C4F24220B1B30121C0F8F5
:103A30008014FEF701FF0546786810F0020F05D1EB
:103A4000FEF7FAFE401B0228F6D937E140F250009B
:103A500044F6D351C2F20000C1F262010068A0FB3B
:103A60000101480A029000BF00BF0298411E0028D1
:103A7000029123D000BF0298411E002802911DD060
:103A800000BF0298411E0028029117D000BF029883
:103A9000411E00280291E7D110E00021C0F88014F7
:103AA000FEF7CAFE054600BF786810F0020F05D089
:103AB000FEF7C2FE401B0228F6D9FFE0207840073F
:103AC00040F1908057F8040C10F0805F0ED157F849
:103AD000040C4FF0010840F0805047F8040C57F8F0
:103AE000040C00F080500190019801E04FF00008B4
:103AF00046F20006CFF6FE7659F8060010F4807FF5
:103B000013D159F8060040F4807049F80600FEF71A
:103B100093FE054659F8060010F4807F05D1FEF7A4
:103B20008BFE401B6428F5D9C8E0E06858B1012835
:103B300005D03968052833D141F004003860386871
:103B400040F0010032E0386820F001003860386849
:103B500020F004003860FEF76FFE0546386810F06C
:103B6000020F36D041F28836FEF766FE401BB042A7
:103B700000F2A480386810F0020FF5D129E000218E
:103B80000160FEF759FE0546D9F8000010F0020F5B
:103B90003FF444AFFEF750FE401B0228F4D98DE0FD
:103BA00021F001003860386820F004003860FEF72A
:103BB00043FE0546386810F0020F0AD141F28836FC
:103BC000FEF73AFE401BB04278D8386810F0020F7A
:103BD000F6D0B8F1000F1EBF57F8040C20F080504B
:103BE00047F8040CE669002E64D057F81C0C00F06E
:103BF0000C00082811D1012E0BD057F81C0C216A9B
:103C000000F480328A4204D1616A00F47010884264
:103C100050D0012003B0BDE8F08340F2000800203E
:103C2000C4F24228C8F86000FEF706FE0546D9F83F
:103C30000000022E00F0007031D148B1FEF7FCFD0B
:103C4000401B02283AD8D9F8000010F0007FF5D1C7
:103C5000206AB0F5803F07D157F81C1CA26821F4F8
:103C60000031114347F81C1C57F81C1C626A1043B2
:103C700021F47411084347F81C0C0120C8F86000B7
:103C8000FEF7DAFD044600BFD9F8000010F0007F0F
:103C900010D1FEF7D1FD001B0228F5D90EE048B186
:103CA000FEF7CAFD401B022808D8D9F8000010F022
:103CB000007FF5D1002003B0BDE8F083032003B0FE
:103CC000BDE8F083406D704770B5044634B1606A5A
:103CD00038B10020206104F1140008E001263046CC
:103CE00070BD6068B0F5827F03D004F11C00002134
:103CF000016000264FF0000CA662606D30B92046CE
:103D0000266500F039F8A06A00F4005C02216165C4
:103D100021680A6822F040020A60D4E90123D4E94C
:103D2000030502F4827203F4044300F400601A43B2
:103D3000104305F002021043626902F001021043D1
:103D4000A26902F400731843E36903F038031843CF
:103D5000236A03F08003184340EA0C000860042043
:103D600000EA12404860C86920F40060C861012080
:103D7000A6656065304670BD70B586B0002640F619
:103D80000004CDE90466CDE90266C4F201040068CE
:103D900004F52051884201D006B070BD41F21800F0
:103DA00002ADC4F20200016841F480510160016873
:103DB00001F4805101910199016841F00401016011
:103DC0002946006800F00400019001980220039049
:103DD000A0200290032005902046FEF705FC40201D
:103DE000039629460290012004902046FEF7FCFB32
:103DF00006B070BD2DE9F04381B004461D4616465D
:103E00000F46206D012802BF022001B0BDE8F083FB
:103E10004FF00109C4F85090FEF70EFD8046606D2A
:103E200001285FD1002F4FF0010018BF002E00F0D5
:103E30009C80032060650020A065E6862763A68637
:103E4000A063A087C4E91000E087A1682068B1F5ED
:103E5000004F07D1016821F040010160016841F481
:103E6000804101600168731EB3FA83F311F0400FC3
:103E70004FEA531302BF016841F0400101606168DD
:103E8000E268B1FA81F1B2F5006F4FEA511141EAEF
:103E9000030129D131B137F8021BC1602763E18EDC
:103EA0000139E186E18E002944D06E1C01E000BF9B
:103EB0002068816811F0020F08D1FEF7BDFC6EB1D9
:103EC000A0EB0800A84209D356E000BF216B31F8EF
:103ED000022BC2602163E08E0138E086E08E00286C
:103EE000E6D127E0022040E039B139780173206B38
:103EF00001302063E08E0138E086E08ED0B16E1C88
:103F00002068816811F0020F08D1FEF795FC76B1A8
:103F1000A0EB0800A8420AD32EE000BF216B09786D
:103F20000173206B01302063E08E0138E086E08E63
:103F30000028E5D1204680212A46434601F04AF870
:103F400028B1A06D40F02000A0652020A065A068E9
:103F500038B9002000902068C16800918068009006
:103F60000098A06D002818BF012000212165C4F829
:103F7000549001B0BDE8F0830320F6E72DE9F0434B
:103F800081B004461E4615460F46206D012802BF2B
:103F9000022001B0BDE8F08301202065FEF74CFC53
:103FA000616D814601290BD06068B0F5827F77D1C1
:103FB0000220042940F0CD80A168002940F0C9808A
:103FC000002F4FF0010018BF002D00F0C280002E1E
:103FD00000F0BF80606D731EDDF82080B3FA83F3BC
:103FE00004284FEA53131CBF052060650020A0651C
:103FF000E687A563A6872763A686C4E91000E68640
:104000002068016811F0400F02BF016841F04001D3
:1040100001606168E268B1FA81F1B2F5006F4FEAC0
:10402000511141EA03013DD131B137F8021BC160A2
:104030002763E08E0138E086012608F1010500BF04
:10404000E08E10B9E08F00286AD02068816811F0F6
:10405000020F0CD0E18E012E09D141B1216B002657
:1040600031F8022BC2602163E18E0139E18681685B
:1040700011F0010F0AD0E18F41B1C068A16B012698
:1040800021F8020BA163E08F0138E087FEF7D4FB33
:10409000002DD5D0A0EB09004045D1D3032058E036
:1040A000022056E039B139780173206B013020636A
:1040B000E08E0138E086012608F10105E08E08B99E
:1040C000E08F68B32068816811F0020F0ED0E18E96
:1040D000012E0BD151B1216B002609780173216BA0
:1040E000206801312163E18E0139E186816811F098
:1040F000010F0BD0E18F49B1C068A16B0126087098
:10410000A06B0130A063E08F0138E087FEF794FBDD
:10411000002DD3D0A0EB09004045CFD3032018E0F9
:104120002046802142464B4600F054FF38B1A06D36
:1041300040F02000A0652020A065012009E0A168D2
:10414000002031B900902168CA6800928968009106
:104150000099002121650121616501B0BDE8F0836E
:10416000411E0020B0EB116F1CBF012070474EF2C2
:104170001002F023CEF2000251604EF62351CEF22F
:1041800000010B70072190601160704770470000BC
:1041900010B5044621684869226C212A11D110F01B
:1041A00080000ED0486920F080004861606B10B13B
:1041B000FEF712F82168C86820F0C000C86020200F
:1041C00020644869626C222A1ED110F040001BD086
:1041D000486920F040004861A06B10B1FDF7FCFF7A
:1041E0002168C86820F49070C860486920F0010018
:1041F0004861206B012802BFC86820F01000C86029
:104200002020606400202063002010BD7047000063
:10421000B0B582B005462A681068D168536910F0BD
:104220000F0F69D001F4907403F001031C436DD0AB
:10423000C4071FBF11F48074AC6C44F00104AC647B
:10424000440705D5002B1EBFAC6C44F00204AC64DF
:10425000840705D5002B1EBFAC6C44F00404AC648D
:10426000040707D501F0200423431EBFAB6C43F0C5
:104270000803AB64AB6C002B00F0DF8008408006C5
:1042800003D5284601F0E4F92A685069A96C00F0CA
:10429000400001F00801084300F0AC80D06820F431
:1042A0009070D060506920F001005061286B0128A7
:1042B00002BFD06820F01000D06020206864002089
:1042C0002863506910F0400F5ED0506920F0400024
:1042D0005061A86B002857D045F24551C0F6000147
:1042E0008163FDF795FF002800F0A780A86B816B24
:1042F00002B0BDE8B040084700EA01039B0605D5BF
:10430000284602B0BDE8B04001F0A2B90840C1069D
:10431000296B27D5012925D1002001901068019033
:10432000506801900198506910F0400F32D1E88D2B
:10433000A98DEB8D002B00F08080081A81B2002936
:104340007BD0D06820F49070D060506920F00100DC
:1043500050612020686400202863D06820F010009D
:10436000D06041E001064CD5286C212865D1A868B1
:10437000B0F5805F02D12869002850D0286A411C1E
:1043800029620078506051E0284602B0BDE8B04094
:10439000FFF73CBFA86B01684B6899B200294CD06D
:1043A000B5F82CC0614548D2EB858169202917D02A
:1043B000D16821F48071D160516921F0010151610E
:1043C000516921F040015161202169640021296374
:1043D000D16821F01001D160FDF7FEFEB5F82CC0C8
:1043E000E88DACEB000081B2284602B0BDE8B040D9
:1043F000FFF7CCBE2846FFF709FF0020A86402B0F3
:10440000B0BD400619D5D06820F04000D060202013
:104410002864284602B0BDE8B04000F041BA286ADE
:1044200030F8021B6FF35F2151602862E88C4FF671
:10443000FF7101380842E88401D002B0B0BDD068F5
:1044400020F08000D060D06840F04000D06002B022
:10445000B0BD000080B540F23850C2F20000FBF75A
:104460009BFE40F6E441C2F20001086080BD0000FE
:1044700010B50446002C04BF012010BD206C20B9EB
:104480000020E063204600F05DF8242020642068CE
:10449000C16821F40051C1600169E26821F4405112
:1044A000114341F20C620161D4F808C0D4E904E37D
:1044B000C16891434EEA0C021A431143C16041693D
:1044C000A26921F440711143416143F60001C4F235
:1044D0000101884202D0FFF7CBF901E0FFF7DCF9D8
:1044E000192148F21F5C4843D4E90012C5F2EB1CC5
:1044F0009200B0FBF2F0A0FB0C3252096FF06303A4
:1045000002FB0300322303EB0010A0FB0C03F0209E
:1045100000EA531000EB0210C3F34312104388600B
:10452000086920F490400861486920F02A00486139
:10453000C86840F40050C86000202021A0642164B5
:10454000616410BD2DE9F04385B0002740F60005F9
:104550000446CDE90377CDE90177C4F2010521686E
:10456000A5F54440814202D005B0BDE8F08341F298
:10457000180001AEC4F20200416841F4003141600C
:10458000416801F4003100910099016841F0040193
:1045900001603146006800F004000090009802209D
:1045A000029004200190032004902846FEF71CF896
:1045B000082002973146019028460397FEF714F829
:1045C00040F64C0540F26C094FF080082020C2F202
:1045D0000005C4F20209C5E90097C5E90278C5E9FA
:1045E0000477C5E906072846FDF72AFF002818BF0B
:1045F000FDF732FC40F6940600204FF4005109F11B
:1046000014021023A563AC62C2F20006C6E90023BF
:10461000C6E90208C6E90400C6E906013046FDF70E
:104620000FFF002818BFFDF717FC262001210022EC
:104630006663B462FFF704F82620FEF7F1FF05B0C9
:10464000BDE8F083B0B582B0054613460A46686CF3
:1046500020280AD1002A4FF0010418BF002B05D0F2
:10466000E86B012805D1022400E00224204602B0B4
:10467000B0BD0024012045F20D6C45F2B55145F264
:10468000515E2C63AC64E8632220AA62AB85C0F65D
:10469000000CC0F60001C0F6000E6864A86B00F1C3
:1046A0002C0787E80250846329680431FDF706FF70
:1046B0000194286801680191416801910199EC63B6
:1046C000C16841F48071C160416941F001014161FB
:1046D000416941F040014161C8E7000070470000B6
:1046E000704700002DE9F04F81B004461D46164684
:1046F0000F46206C20280BD1002F4FF0010018BF6F
:10470000002E02D101B0BDE8F08FE06B012803D18B
:10471000022001B0BDE8F08F4FF0000B0120C4F87B
:1047200048B0E06321202064FEF786F8A684E68482
:104730008046A068B0F5805F09D1D4F810A04FF092
:104740000009BAF1000F0CBFB946BA4602E0BA46FA
:104750004FF00009C4F83CB0E18CD4F800B0DBF8AD
:104760000000E1B36F1C000613D45E463FB125B3D1
:10477000FEF762F8A0EB08002668A8421ED8306851
:1047800010F0800FF2D0BAF1000F06D01AF8010B2A
:1047900009E05E46BAF1000FF8D139F8020B4FF08C
:1047A000000A6FF35F207060E08CB3460138E0844C
:1047B000E18C30680029D6D112E05E46F06820F422
:1047C000D070F060706920F001007061202000213D
:1047D0002064E1636064032001B0BDE8F08F5E46B1
:1047E00040060ED46F1C30463FB185B1FEF724F869
:1047F000A0EB08012068A9420AD8016811F0400F17
:10480000F2D020202064002001B0BDE8F08F3046B7
:10481000C16821F4D071C160416921F00101416199
:10482000D4E70000B0B505461346286C202809D10E
:10483000002918BF002B02D101242046B0BDE86B2F
:10484000012802D102242046B0BD00240120EB84BF
:1048500045F2496C45F2216245F2515EAC64296231
:10486000E8632120AB84C0F6000CC0F60002C0F65D
:10487000000E2864686B00F12C0787E804508463FD
:104880002A680432FDF71AFE28686FF040010160C3
:10489000EC63416941F0800141612046B0BD0000F8
:1048A0007047000070470000FEE700002DE9F04F60
:1048B00081B004460F46904699462068016841F44D
:1048C00080610160016841F480710160014651F826
:1048D000142FDDE90A6B12F0010F13D1751C00BF14
:1048E00055B1FDF7A9FF002E00F0D380A0EB0B001F
:1048F000B04200F2CE802068014651F8142F12F029
:10490000010FEDD007F0FE0AC0F810A00A6812F0FF
:10491000020F19D1771C00BF0A6812F4806F40F0B3
:10492000E480002F0AD0FDF787FF002E00F0EE8014
:10493000A0EB0B00B04200F2E9802068014651F87C
:10494000142F12F0020FE7D0002200920A680092A2
:1049500082690092009A0A6812F0800F19D1771CC0
:104960000A6812F4806F40F0AA80002F0BD0FDF788
:1049700063FF2021002E00F0A680A0EB0B00B042C8
:1049800000F2A1802068014651F8142F12F0800F28
:10499000E6D0B9F1010F21D04FEA1821016101469B
:1049A00051F8142F12F0800F18D1771C0A6812F4F6
:1049B000806F40F08480002F0AD0FDF73DFF20215A
:1049C000002E00F08080A0EB0B00B0427BD8206866
:1049D000014651F8142F12F0800FE7D05FFA88F1EA
:1049E0000161014651F8142F12F0800F16D1771C87
:1049F0000A6812F4806F62D1002F09D0FDF71CFF06
:104A00002021002E5FD0A0EB0B00B0425BD82068C5
:104A1000014651F8142F12F0800FE9D0026842F4D9
:104A2000807202600A6812F0010F11D1751C00BF7C
:104A3000002D07D0FDF700FF5EB3A0EB0B00B042E6
:104A400027D82068014651F8142F12F0010FEFD03B
:104A50004AF0010202610A6812F0020F15D1771CB8
:104A60000A6812F4806F40D1002F08D0FDF7E4FEF1
:104A7000002E4BD0A0EB0B00B04247D82068014677
:104A800051F8142F12F0020FEAD0002001B0BDE857
:104A9000F08F00202021206321646064E063A06C1B
:104AA00040F02000A0642068006810F4807F1CBFE4
:104AB0004FF40070A064032001B0BDE8F08F6FF4E4
:104AC000806008600421002020222063226460644A
:104AD000A26C1143A164E063A06C042820D120687B
:104AE000016841F4007101601AE0026842F400724A
:104AF00002606FF480600860002020212063216440
:104B00006064E063A06C40F0040008E00020202115
:104B1000206321646064E063A06C40F02000A06426
:104B2000012001B0BDE8F08F2DE9F04782B00446C6
:104B30008A46904699462068016841F48071016078
:104B4000014651F8142FDDE90A6512F0010F10D16A
:104B5000771C00BF3FB1FDF76FFE002E71D0401BE8
:104B6000B0426ED82068014651F8142F12F0010FA0
:104B7000F0D00AF0FE0202610A6812F0020F17D1AB
:104B8000771C00BF0A6812F4806F70D1002F09D023
:104B9000FDF752FE002E00F09180401BB04200F263
:104BA0008D802068014651F8142F12F0020FE9D0D1
:104BB000002201920A68019282690192019A0A68B0
:104BC00012F0800F15D1771C0A6812F4806F5FD144
:104BD000002F08D0FDF730FE2021002E5CD0401BB6
:104BE000B04259D82068014651F8142F12F0800FB6
:104BF000EAD0B9F1010F1DD04FEA18210161014639
:104C000051F8142F12F0800F14D1771C0A6812F497
:104C1000806F3DD1002F07D0FDF70EFE2021DEB3BF
:104C2000401BB04238D82068014651F8142F12F0CA
:104C3000800FEBD05FFA88F10161002002B0BDE87F
:104C4000F08700202021206321646064E063A06C71
:104C500040F02000A0642068006810F4807F1CBF32
:104C60004FF40070A064032002B0BDE8F087026832
:104C700042F4007202606FF480600860002020211E
:104C8000206321646064E063A06C40F004001EE0D7
:104C90006FF48060086004210020202220632264D9
:104CA0006064A26C1143A164E063A06C04280FD17E
:104CB0002068016841F40071016009E000202021B2
:104CC000206321646064E063A06C40F02000A06475
:104CD000012002B0BDE8F08780B582B041F2140037
:104CE0000022C4F20200016841F0010101600021CC
:104CF000006800F00100019001981020FEF7A0FC70
:104D00001020FEF78DFC112000210022FEF798FCF8
:104D1000112002B0BDE88040FEF782BC2DE9F04FC3
:104D200085B041F218004FF0000840F6000B002259
:104D3000CDE90388C4F20200C4F2010B016841F01E
:104D400010010160016801F01001009100990168F3
:104D500041F020010160016801F0200100910099FB
:104D6000016841F004010160016801F00401009153
:104D70000099016841F00801016040F203110068E8
:104D800000F00800009000985846FDF74FFD584687
:104D900048F2100101220127FDF748FD0BF5806460
:104DA00040F2011100222046FDF740FD2046182167
:104DB0000122FDF73BFD4FF0030901AD4FF46040C8
:104DC000CDF8089001900BF500602946FDF70CFC2A
:104DD000112002262946CDE901705846CDF80C80F5
:104DE0000496FDF701FC01A8294680E8C001584659
:104DF0000497FDF7F9FB10200297294601905846C9
:104E0000CDE90389FDF7F0FB20462946CDE901777E
:104E1000CDE90376FDF7E8FB4FF60640CDF80880B4
:104E20002946019020460397FDF7DEFB4FF4807A78
:104E3000584629460297CDF804A0CDE90366FDF750
:104E4000D3FB4FF4F050CDF8089029460190584616
:104E5000FDF7CAFB4FF400400297294601905846DF
:104E6000CDE90386FDF7C0FB182002972946019083
:104E70002046CDE90386FDF7B7FB00202946C1F2A5
:104E8000110002902020019020460396FDF7ACFB14
:104E900020462946CDE901A7CDE90366FDF7A4FB2D
:104EA0004FF40070CDF80890294601902046FDF798
:104EB0009BFB172000210022FEF7C2FB1720FEF704
:104EC000AFFB05B0BDE8F08F80B540F6DC0041F6E1
:104ED000802145F2004200234FF4804CC2F20000D2
:104EE000C0F20601C4F200020362C0E90021C0E979
:104EF0000233C0E904C3C0E90633FDF7A3FC002870
:104F000014BFBDE8804080BDFCF7A6BF80B540F669
:104F1000381043F2000204214FF47A73C2F2000009
:104F2000C4F20002C0E900218360FEF7C9FA00283C
:104F300014BFBDE8804080BDFCF78EBF80B540F651
:104F4000441043F200024FF4827100234FF4007CBE
:104F50004FF0200EC2F20000C4F20102C0E90021AD
:104F60000A21C0E90233C0E90433C0E906CEC0E932
:104F70000833C0E90A31FEF7A7FE002814BFBDE8D8
:104F8000804080BDFCF768BF80B540F6A01044F2B9
:104F900000424FF4E13100234FF00C0CC2F200004C
:104FA000C4F20002C0E90021C0E90233C0E9043CB8
:104FB000C0E90633FFF75CFA002814BFBDE8804063
:104FC00080BDFCF749BF0000FEE70000704700000D
:104FD000704700002DE9F04381B01E4690460D4613
:104FE0008146FDF729FC301A00EB0807FDF724FC89
:104FF000064640F25000C2F200000068C0F3CB3019
:1050000078430090D9F8000081682940A94214D162
:1050100008F101046CB1FDF70FFC801BB84210D2FF
:105020000098009901390028009108BF0746D9F877
:10503000000081682940A942ECD0002001B0BDE801
:10504000F083D9F80000416821F0E0014160D9F80F
:105050000410B1F5827F0BD1D9F80810B1F5004FDB
:1050600002D0B1F5806F03D1016821F040010160E9
:10507000D9F82810B1F5005F07D1016821F400517B
:105080000160016841F4005101600020C9F850003E
:105090000120C9F85400032001B0BDE8F0830000EE
:1050A0002DE9F04383B04FF4FA70FDF755FA40F65E
:1050B000DC00782101224FF47A73C2F20000FDF780
:1050C00081FC0024002840F04B810A200A27FDF7CC
:1050D00043FA40F6DC054FF42E400DF10A06782124
:1050E00002230097C2F20005ADF80A0032462846B6
:1050F000FDF760FD4FF40058284678213246022320
:105100000097ADF80A80FDF755FD4FF48059284609
:105110007821324602230097ADF80A90FDF74AFD48
:105120004FF430407821324602230097ADF80A0050
:105130002846FDF73FFD4FF44840782132460223D0
:105140000097ADF80A002846FDF734FD284678217F
:1051500032460223ADF80A400097FDF72BFD2846A2
:10516000782132460223ADF80A900097FDF722FD20
:105170004FF480407821324602230097ADF80A00B0
:105180002846FDF717FD4FF40140782132460223EF
:105190000097ADF80A002846FDF70CFD4FF47F405C
:1051A0007821324602230097ADF80A002846FDF721
:1051B00001FD4FF421407821324602230097ADF8DB
:1051C0000A002846FDF7F6FC4FF4264078213246C7
:1051D00002230097ADF80A002846FDF7EBFC4FF4D8
:1051E00028407821324602230097ADF80A0028466D
:1051F000FDF7E0FC4FF47C50782132460223009703
:10520000ADF80A002846FDF7D5FC4FF4244078217C
:10521000324602230097ADF80A002846FDF7CAFC83
:105220004FF453407821324602230097ADF80A002C
:105230002846FDF7BFFC2846782132460223ADF808
:105240000A400097FDF7B6FC4FF4554078213246EE
:1052500002230097ADF80A002846FDF7ABFC4FF497
:1052600070407821324602230097ADF80A002846A4
:10527000FDF7A0FC4FF459407821324602230097F5
:10528000ADF80A002846FDF795FC4FF40850782148
:10529000324602230097ADF80A002846FDF78AFC43
:1052A0004FF45A407821324602230097ADF80A00A5
:1052B0002846FDF77FFC4FF49050782132460223B8
:1052C0000097ADF80A002846FDF774FC4FF45B40E8
:1052D0007821324602230097ADF80A002846FDF7F0
:1052E00069FC2846782132460223ADF80A800097EF
:1052F000FDF760FC4FF40D40782132460223009701
:10530000ADF80A002846FDF755FC4FF4A05078216F
:10531000324602230097ADF80A002846FDF74AFC02
:105320004FF42F407821324602230097ADF80A004F
:105330002846FDF73FFC40F220104FF48361C2F293
:105340000000FAF708FF00F0A9F840F21A10C2F2C4
:105350000000048040F21810C2F200000480012412
:10536000204603B0BDE8F0832DE9F04F86B040F24F
:1053700018160C78C2F200063388E718802F0AD876
:1053800040F21A1591F801C0C2F200052D8802956D
:105390006544402D03D9002006B0BDE8F08FBCF174
:1053A000000F76D040F21C1740F22015C2F2000721
:1053B000C2F200053E78B2FA82F77F09002E18BFCC
:1053C0003A46059218BF01260090203887EA060267
:1053D0004FF40047264601900492002236064BD037
:1053E00001984E6803924FF0000E0CFB002036F837
:1053F0001060029802EB000C0122CCF3CC0000EB11
:10540000C0180CF0070002FA00F989F0FF0B00BF8A
:1054100003EB0E041FFA8CF0002240284FF000002E
:10542000A4B288BF0120802C88BF012242EA000A72
:1054300027FA0EF030420BD0BAF1000F13D14444DA
:10544000059A285D012A0BD140EA09000AE000BF55
:10545000BAF1000F07D14444049A285D002AF3D121
:1054600000EA0B0028550C780EF1010EA645CFD3AB
:10547000039A264601E000BF002691F801C00132E0
:105480006245ABD3E0B240F21816C7180098C2F2DA
:105490000006378006B0BDE8F08F00002DE9F04F20
:1054A000A3B040F2201640F6DC070DF10A0AB02541
:1054B0004FF000090A240AF10108C2F20006C2F204
:1054C000000700BF38467821524602238DF80A9023
:1054D0008DF80B500094FDF76DFB3846782152464D
:1054E0000223ADF80A900094FDF764FB4FF480505E
:1054F0007821524602230094ADF80A003846FDF7A1
:1055000059FB402031468122EB468DF80A00404687
:10551000FAF708FE38467821524681230094FDF7B9
:1055200049FB81360135DD46B82DCBD123B0BDE82E
:10553000F08F000070470000FDF70EB8FDF7F2BFD6
:1055400070470000806A0021C185C184FEF75EBEFD
:10555000806A01684A69036C212B0AD112F080022B
:1055600007D00022C284CA6822F0C002CA6020228A
:1055700002644A69436C222B16D112F0400213D008
:105580000022C285CB6823F49073CB604B6923F073
:1055900001034B61036B012B02BFCB6823F01003A7
:1055A000CB60202141640263816C41F01001816471
:1055B000FEF72CBE0168806A096811F0200F1AD12D
:1055C0000021C1850168CA6822F48072CA604A69F4
:1055D00022F001024A614A6922F040024A61202217
:1055E0004264024652F8303F012B02BFCB6823F0E1
:1055F0001003CB6001E000F130021168012918BFEF
:10560000FFF76CB8818DFEF7C1BD0000806A016BA9
:10561000012918BFFFF764B8818D4908FEF7B6BDB0
:105620000168806A096811F0200F18BFFFF738B9C8
:105630000021C1840068416921F080014161C16895
:1056400041F04001C1607047806AFFF72BB900004C
:10565000416C222918BF70478268B2F5805F05D17E
:105660000169002941D0816AFF2205E0816A12B9EF
:105670000269002AF8D07F2203685B681A400A702A
:105680000122816A11444FF6FF728162C18D013996
:105690001142C18500D070470168CA6822F020021B
:1056A000CA60CA6822F48072CA604A6922F00102A4
:1056B0004A6120224264026B012A18BFFFF70EB82C
:1056C00000220263CB6823F01003CB600B6813F059
:1056D000100F07D081B000920A68009249680091CB
:1056E000009901B0818DFEF751BD0268816A526850
:1056F0006FF35F220A800222C4E7000010B582B077
:1057000040F6A014C2F200042046FEF781FD0020FE
:10571000019020680168019140680190019820463D
:10572000FEF736FD2046FEF795FE40F23851204642
:10573000C822C2F2000102B0BDE81040FEF782BFED
:10574000FEE700004EF60C50BFF34F8F0422CEF25E
:105750000000C0F2FA52016801F4E06111430160F7
:10576000BFF34F8F00BFFDE710B584B04FF6FF7059
:1057700040F25804C0F28010C2F20004029042F2DB
:10578000D620ADF80C0020684069E0B140F2CF604F
:1057900002AB0422C2F2000090F8D61081F0220180
:1057A000415C81F0FF01415C81F0FF01415C81F0CF
:1057B0008001415C81F00101405C03A9009002205E
:1057C00009F0B8FF05E003A902AB0220042209F0AA
:1057D0007DFF21684FF6E072087A8DF80A00ADF877
:1057E000082000228DF80B2047F6E262ADF80E206B
:1057F0004969E1B140F2CF6102ABC2F2000191F818
:10580000E22082F07E028A5C82F0E0028A5C82F012
:10581000FF028A5C50400422C0B2085C085C0DF1B3
:105820000E010090022009F085FF04B010BD0DF1BB
:105830000E0102AB0220042209F048FF04B010BDA3
:1058400040F6B8400321C2F200000170704700002A
:1058500040F6B8410122C2F200010A70C1887F29D6
:1058600088BF704740F6B3300022C2F2000004F057
:10587000D9BC000040F6B8400221C2F2000001701D
:105880007047000040F6E0400121C2F200000170C4
:10589000704700002DE9F04F87B040F6C246C2F2D3
:1058A0000006307802380D2800F2FD84DFE810F0A1
:1058B0000E001800FB0446005E007400EA001801A8
:1058C0002E018001FB04FB04FB04B10140F6B8404B
:1058D000C2F200000178012940F0E4810321E9E1EE
:1058E00040F6B330C2F20000417A102940F05983EB
:1058F00040F67C31827AC2F2000109788A4240F097
:10590000508340F62902817CC2F2000212784A409C
:10591000520640F04683C279D0F80D0040F2E4739D
:10592000C2F2000300BA43F8220001F07F0040F603
:105930002C01C2F2000141F8220032E302200221D0
:1059400003F094F80020002405F00EFD002005F07F
:105950006FFD002004F07CFE013000F02D8340F646
:10596000B840C2F200000470062026E340F6B840BA
:10597000C2F200000178012940F09F8100210170EE
:1059800040F6C440C2F2000004F0F6FC052141EAF2
:10599000907080F0020097E140F6B330C2F2000050
:1059A000417A422900F0F081212940F0058340F638
:1059B0007C35827AC179C37A477BC2F200052A70AE
:1059C00040F68532012BC2F20002117040F2CE6225
:1059D000C2F20002177040F6C04288BF0023C2F234
:1059E0000002137040F61022C2F2000212889142A7
:1059F00080F0E28240F6E84590F80EC090F80FE0A3
:105A000090F81080477C847CC17C027D437DC2F28B
:105A10000005C5E900CEC5E90287C5E90441C5E92D
:105A20000623817DC07DC5E9081007F077F940F6AF
:105A30008031C2F20001086006F0C4FC40F6283252
:105A4000C2F20002C2E9000140F6C1400421C2F2E4
:105A5000000001700B200121307040F20560C2F29D
:105A60000000007801FA00F040F6B231C2F2000105
:105A70000870012006F07CFD022007B0BDE8F04F61
:105A800006F076BD40F6ED10C2F200000078002866
:105A900000F0B781012800F0D481092840F0F78197
:105AA00040F6F01040F205614FF69A12C2F2000083
:105AB000C2F2000100680978484340F2B041C0F6E4
:105AC0006D3100FB021040F62831C2F2000106C918
:105AD000401842F1000140F2B012C0F21D42CFE185
